:020000041FFFDC
:1080000000800020F582FF1F2183FF1F2183FF1FB7
:108010002183FF1F2183FF1F2183FF1F000000001A
:108020000000000000000000000000006584FF1F49
:108030002183FF1F000000001186FF1F6D86FF1FB8
:108040002183FF1F2183FF1F2183FF1F2183FF1F28
:108050002183FF1F2183FF1F2183FF1F2183FF1F18
:108060002183FF1F2183FF1F2183FF1F2183FF1F08
:108070002183FF1F2183FF1F2183FF1F2183FF1FF8
:108080002183FF1F2183FF1F2183FF1F2183FF1FE8
:108090002183FF1F2183FF1F2183FF1F2183FF1FD8
:1080A0002183FF1F2183FF1F2183FF1F2183FF1FC8
:1080B0002183FF1F2183FF1F2183FF1F2183FF1FB8
:1080C0002183FF1F2183FF1F2183FF1F2183FF1FA8
:1080D0002183FF1F2183FF1F2183FF1F2183FF1F98
:1080E0002183FF1F2183FF1F2183FF1F2183FF1F88
:1080F0002183FF1F2183FF1F2183FF1F2183FF1F78
:108100002183FF1F2183FF1F2183FF1F2183FF1F67
:108110002183FF1F2183FF1F2183FF1F2183FF1F57
:10812000759EFF1F2183FF1F2183FF1F2183FF1FD8
:108130002183FF1F2183FF1F2183FF1F2183FF1F37
:108140002183FF1F2183FF1F2183FF1F2183FF1F27
:108150002183FF1F2183FF1F2183FF1F2183FF1F17
:108160002183FF1F2183FF1F2183FF1F2183FF1F07
:108170002183FF1F2183FF1F2183FF1F2183FF1FF7
:108180002183FF1F2183FF1F2183FF1F2183FF1FE7
:108190002183FF1F2183FF1F2183FF1F2183FF1FD7
:1081A0002183FF1F2183FF1F2183FF1F2183FF1FC7
:1081B0002183FF1F2183FF1F2183FF1F2183FF1FB7
:1081C0002183FF1F2183FF1F2183FF1F2183FF1FA7
:1081D0002183FF1F2183FF1F2183FF1F2183FF1F97
:1081E0002183FF1F2183FF1F2183FF1F2183FF1F87
:1081F0002183FF1F2183FF1F2183FF1F2183FF1F77
:108200002183FF1F2183FF1F2183FF1F2183FF1F66
:108210002183FF1F2183FF1F2183FF1F2183FF1F56
:108220002183FF1F2183FF1F2183FF1F2183FF1F46
:108230002183FF1F2183FF1F2183FF1F2183FF1F36
:1082400010B5054C237833B9044B13B10448AFF390
:1082500000800123237010BD880000200000000072
:1082600094E8FF1F08B5034B1BB103490348AFF364
:10827000008008BD000000008C00002094E8FF1F73
:10828000154B002B08BF134B9D46A3F5803A0021E8
:108290008B460F461348144A121A04F044FF0F4B42
:1082A000002B00D098470E4B002B00D098470020A1
:1082B000002104000D000D48002802D00C48AFF347
:1082C000008004F0F1FE2000290001F0DDFC04F044
:1082D000C5FE00BF00000800008000200000000074
:1082E0000000000088000020842200200000000020
:1082F0000000000072B604F0ADFB0649064A074BC9
:108300009A42BEBF51F8040B42F8040BF8E762B67C
:10831000FFF7B6FFBCE8FF1F000000208800002028
:10832000FFF7FEBF034613F8012B002AFBD1181AF2
:10833000013870470000000000000000000000004D
:1083400001F0FF01102A2BDB10F0070F08D010F806
:10835000013B013A8B422DD010F0070F42B3F6D10A
:10836000F0B441EA012141EA014122F007047FF023
:1083700000070023F0E80256083C85EA010586EA7A
:10838000010685FA47F5A3FA87F586FA47F6A5FAB6
:1083900087F68EB9EED1F0BC01F0FF0102F00702C2
:1083A00032B110F8013B013A83EA010313B1F8D16D
:1083B0000020704701387047002D06BF354603384E
:1083C000073815F0010F07D1013015F4807F02BF87
:1083D000013015F4C03F0130F0BC0138704700BFD8
:1083E00080B485B000AFF860B9607A60FB68043B88
:1083F000FB60FB684FF080721A60FB68043BFB6017
:10840000BA68FB681A60FB68043BFB600C4AFB68B7
:108410001A60FB68143BFB607A68FB681A60FB68B3
:10842000043BFB60FB686FF002021A60FB68203BB4
:10843000FB60FB6818461437BD465DF8047B704747
:108440004584FF1F80B500AF054B1B68B3F1FF3FAC
:1084500002D000F0CFF8FEE700F0CCF8FEE700BF56
:1084600000000020064B19680868B0E8F04F80F360
:108470000988BFF36F8F4FF0000080F311887047B9
:108480003021002000BF00BF06480068006880F36C
:10849000088862B6BFF34F8FBFF36F8F00DF00BF56
:1084A00000BF000008ED00E080B584B000AF2C4BA9
:1084B000FB60FB681B78DBB2BB60FB68FF221A70B5
:1084C000FB681B78DBB2FB71FB79DBB203F02003A6
:1084D000DAB2244B1A70244B07221A6009E0224BAF
:1084E0001B68013B204A1360FB79DBB25B00DBB207
:1084F000FB71FB79DBB203F08003802BEFD01A4BCA
:108500001B681B02184A1360174B1B6803F4E063D7
:10851000154A1360BB68DAB2FB681A70134B1B680C
:10852000124A43F470031360104B1B680F4A43F068
:108530007043136000F0AEF80D4B00221A6000F09B
:10854000BDF80C4B1B680B4A43F040431360FFF728
:108550009BFFFFF777FF002318461037BD4680BD0D
:1085600000E400E0A4000020A800002020ED00E0CE
:108570000000002034EF00E080B400AF064B4FF065
:1085800080521A60BFF34F8FBFF36F8F00BFBD469D
:108590005DF8047B704700BF04ED00E080B500AFDC
:1085A00000F028F8054B1B680133044A1360BFF341
:1085B0004F8FBFF36F8F00BF80BD00BF0000002052
:1085C00080B500AF0A4B1B68002B02D100F012F8F7
:1085D000FEE7074B1B68013B054A1360044B1B6811
:1085E000002B02D1002000F00EF800BF80BD00BFBC
:1085F00000000020EFF311804FF0200181F311887B
:1086000070470023184680F31188704700BF0000B0
:10861000EFF30980BFF36F8F124B1A681EF0100F33
:1086200008BF20ED108A20E9F04F10604DF8043D9E
:108630004FF0200080F3118802F026FE4FF000007A
:1086400080F3118808BC19680868B0E8F04F1EF084
:10865000100F08BFB0EC108A80F30988BFF36F8F4A
:10866000704700BF3021002000BF00BF80B500AFC1
:10867000FFF7C0FF02F050FD0346002B03D0044B70
:108680004FF080521A600020FFF7BDFF00BF80BD91
:1086900004ED00E080B400AF054B064A1A60064BBB
:1086A00007221A6000BFBD465DF8047B704700BF1B
:1086B00014E000E0B776030010E000E0DFF80C0003
:1086C000016841F470010160704700BF88ED00E06F
:1086D00080B582B000AFEFF305837B607B680F2B22
:1086E0000CD90E4A7B6813441B78FB700C4B1B782B
:1086F000FA789A4202D2FFF77DFFFEE7094B1B682A
:1087000003F4E062084B1B689A4202D9FFF772FF3C
:10871000FEE700BF0837BD4680BD00BFF0E300E0C4
:10872000A40000200CED00E0A800002080B584B07B
:1087300004AF00230393002302930023019300233B
:108740000093002382220549054802F057FB0548A3
:1087500003F094FC00BF1846BD4680BDE4DFFF1F58
:108760006987FF1FECDFFF1F80B58AB000AF78601C
:1087700000237B6100233B615023FB602B4803F007
:108780007DFC00233B622A4803F078FC10E04FF4A4
:108790007A7001F039FA0346002B03D0254803F024
:1087A0006DFC02E0244803F069FC3B6A01333B6244
:1087B0003B6A022BEBDD214801F082F97862796A8D
:1087C0001F4803F05BFC7B6A032B16D100233B623E
:1087D00010E04FF47A7001F037FA0346002B03D013
:1087E000184803F04BFC02E0174803F047FC3B6AD3
:1087F00001333B623B6A022BEBDD104801F060F96C
:108800007862796A114803F039FC7B6A002B02D147
:108810000F4803F033FC0023FB610023BB6100BF62
:1088200000BF00BF2837BD4680BD00BF04E0FF1F6A
:1088300028E0FF1F48E0FF1F68E0FF1FAC0000209A
:108840008CE0FF1FA4E0FF1FBCE0FF1FE0E0FF1F64
:1088500008E1FF1F80B594B002AF9D4803F00EFC05
:1088600000237B6400233B644BF2C013FB630023B3
:108870007B6000233B60974B23F007031A46964B1F
:108880001A60954B1B68BB63934B1B681946934852
:1088900003F0F4FBB96B914803F0F0FB10224FF4A6
:1088A000EC718F4803F0EAFB8B4B1B6803F5EC730C
:1088B0007B63FB6BA3F5EC733B633B6BA3F1200283
:1088C0007B6B5A607B6B59687B6B1A1D7B6B03F16A
:1088D00008007B6B0C3300930346824803F0CEFB09
:1088E0007B6B00229A607B6B0022DA607B6B03F16A
:1088F0000C027B6B5B6823F0030304331344FB62BD
:10890000F96A794803F0BAFBFB6A7A6B1A60FB6A72
:1089100002225A607B6B5B681A46796B734803F0DE
:10892000ADFBBB6B00221A6000237B641AE00023BE
:108930003B640BE0BB6B7A6CD1003A6C0A440E329C
:10894000002143F822103B6C01333B643B6C072B46
:10895000F0DDBA6B7B6C9B00134400225A607B6C89
:1089600001337B647B6C0A2BE1DD7B6B5B68BB6155
:108970003B1D7B613B463B61BB69FB601F23BB60CA
:10898000FB68002B01D1002335E0FB681B0C1B04A6
:10899000002B05D1FB681B04FB60BB68103BBB6070
:1089A000FB6803F07F43002B05D1FB681B02FB60D3
:1089B000BB68083BBB60FB6803F07043002B05D12C
:1089C000FB681B01FB60BB68043BBB60FB6803F0FA
:1089D0004043002B05D1FB689B00FB60BB68023B5A
:1089E000BB60FB68002B05DBFB685B00FB60BB68C2
:1089F000013BBB60BB681A467B691A607B691B68D8
:108A0000033BBA6922FA03F3A3F108023B691A6037
:108A10007B691B681A1F7B691A607B6BBB62BB6B2F
:108A20007B623B1D3B623B46FB61BB6A00229A6056
:108A30003B6A1968FB691A687B6AC9000A440E32EE
:108A400053F82220BB6ADA603B6A1968FB691A682E
:108A50007B6AC9000A440E3253F82230002B0BD037
:108A60003B6A1968FB691A687B6AC9000A440E32BE
:108A700053F82230BA6A9A603B6A1968FB691A682F
:108A80007B6AC9000A440E32B96A43F822103B6A75
:108A90001B687A6A9B0013445A68FB691B680121B2
:108AA00001FA03F319463B6A1B680A43796A9B0083
:108AB0000B445A607B6A1B683A6A1268012101FA0A
:108AC00002F21A437B6A1A6000BF4837BD4680BD78
:108AD00024E1FF1FEC000020E420002048E1FF1FFC
:108AE00058E1FF1F78E1FF1F98E1FF1FA8E1FF1F7A
:108AF00080B5A8B000AFF860B9607A60A14B1B6880
:108B0000C7F89C30FFF776FDFB68002B00F034833C
:108B1000FB680F2B04D9FB68033323F0030300E049
:108B20001023FB60BB68102B40F0B1807B68102BDA
:108B300040F0AD80FB68C7F8883007F10803C7F83C
:108B400084303B1DC7F88030D7F88830FB671F237F
:108B5000BB67FB6F002B01D1002335E0FB6F1B0CC3
:108B60001B04002B05D1FB6F1B04FB67BB6F103B85
:108B7000BB67FB6F03F07F43002B05D1FB6F1B022C
:108B8000FB67BB6F083BBB67FB6F03F07043002BB9
:108B900005D1FB6F1B01FB67BB6F043BBB67FB6F22
:108BA00003F04043002B05D1FB6F9B00FB67BB6FBD
:108BB000023BBB67FB6F002B05DBFB6F5B00FB67BA
:108BC000BB6F013BBB67BB6F033B012202FA03F3A0
:108BD0001A46D7F888301344013BC7F88830D7F8D5
:108BE00088307B671F233B677B6F002B01D10023FD
:108BF00035E07B6F1B0C1B04002B05D17B6F1B0426
:108C00007B673B6F103B3B677B6F03F07F43002B21
:108C100005D17B6F1B027B673B6F083B3B677B6F1C
:108C200003F07043002B05D17B6F1B017B673B6F0B
:108C3000043B3B677B6F03F04043002B05D17B6F08
:108C40009B007B673B6F023B3B677B6F002B05DB29
:108C50007B6F5B007B673B6F013B3B673B6F1A465B
:108C6000D7F884301A60D7F884301B68033BD7F8F4
:108C7000882022FA03F3A3F10802D7F880301A60A3
:108C8000D7F884301B681A1FD7F884301A60D7F8D9
:108C90009C30FB6607F10803BB663B1D7B66BB6E21
:108CA0001B68FA6E9B0013445B687A6E12684FF083
:108CB000FF3101FA02F213403B660023FB653B6E75
:108CC000002B4DD03B6EBB6500237B65BB6D002B3D
:108CD00001D1002335E0BB6D9BB2002B05D1BB6DEC
:108CE0001B14BB657B6D10337B65BB6DDBB2002B4A
:108CF00005D1BB6D1B12BB657B6D08337B65BB6DFE
:108D000003F00F03002B05D1BB6D1B11BB657B6D01
:108D100004337B65BB6D03F00303002B05D1BB6DF2
:108D20009B10BB657B6D02337B65BB6D03F001035C
:108D3000002B05D1BB6D5B10BB657B6D01337B6583
:108D40007B6D1A467B6E1A60BB6E19687B6E1A6863
:108D5000FB6EC9000A440E3253F82230FB659EE0D8
:108D6000FB6E1B68BA6E126801324FF0FF3101FAD8
:108D700002F213403B650023FB643B6D002B03D1E3
:108D8000002337E0E42000203B6D9BB2002B05D18F
:108D90003B6D1B143B65FB6C1033FB643B6DDBB21E
:108DA000002B05D13B6D1B123B65FB6C0833FB644C
:108DB0003B6D03F00F03002B05D13B6D1B113B6591
:108DC000FB6C0433FB643B6D03F00303002B05D104
:108DD0003B6D9B103B65FB6C0233FB643B6D03F00A
:108DE0000103002B05D13B6D5B103B65FB6C013330
:108DF000FB64FB6C1A46BB6E1A60BB6E1B68FA6E96
:108E00009B0013445B68BB6400237B64BB6C002B3A
:108E100001D1002335E0BB6C9BB2002B05D1BB6CAC
:108E20001B14BB647B6C10337B64BB6CDBB2002B0C
:108E300005D1BB6C1B12BB647B6C08337B64BB6CC1
:108E400003F00F03002B05D1BB6C1B11BB647B6CC3
:108E500004337B64BB6C03F00303002B05D1BB6CB4
:108E60009B10BB647B6C02337B64BB6C03F001031F
:108E7000002B05D1BB6C5B10BB647B6C01337B6446
:108E80007B6C1A467B6E1A60BB6E19687B6E1A6823
:108E9000FB6EC9000A440E3253F82230FB65FB6DAD
:108EA000C7F89830D7F89830002B04D10020FFF78E
:108EB000AAFB00236CE1D7F898303B64D7F89C30CC
:108EC000FB6307F10803BB633B1D7B63BB6B186847
:108ED0007B6B1A683B6CD968FB6BC00002440E3296
:108EE00043F82210BB6B19687B6B1A68FB6BC900D7
:108EF0000A440E3253F82230002B0CD0BB6B196899
:108F00007B6B1A68FB6BC9000A440E3253F822309F
:108F100000229A6026E0BB6B1B68FA6B9B0013442F
:108F20005A687B6B1B68012101FA03F3DB43194686
:108F3000BB6B1B680A40F96B9B000B445A60BB6B10
:108F40001B68FA6B9B0013445B68002B0AD1FB6B18
:108F50001B68BA6B1268012101FA02F2D2431A406F
:108F6000FB6B1A603B6C00229A603B6C0022DA605B
:108F7000D7F8983003F10C02D7F898305B6823F0EB
:108F8000030304331344C7F89430D7F898305B6870
:108F900023F00302FB68D31AC7F89030D7F890305B
:108FA0000F2B40F2D880D7F89030103BC7F89030A4
:108FB000D7F8983003F10C02FB6804331344C7F868
:108FC0008C30D7F8903043F00102D7F88C305A60DB
:108FD000D7F89430D7F88C201A60D7F890303B62DD
:108FE00007F10803FB613B1DBB613B6A7B611F23EB
:108FF0003B617B69002B01D1002335E07B691B0CB1
:109000001B04002B05D17B691B047B613B69103B72
:109010003B617B6903F07F43002B05D17B691B0219
:109020007B613B69083B3B617B6903F07043002B2C
:1090300005D17B691B017B613B69043B3B617B691B
:1090400003F04043002B05D17B699B007B613B69AA
:10905000023B3B617B69002B05DB7B695B007B612D
:109060003B69013B3B613B691A46FB691A60FB693E
:109070001B68033B3A6A22FA03F3A3F10802BB69B7
:109080001A60FB691B681A1FFB691A60D7F88C30DD
:109090003B63D7F89C30FB6207F10803BB623B1DC2
:1090A0007B623B6B00229A60BB6A19687B6A1A6814
:1090B000FB6AC9000A440E3253F822203B6BDA6087
:1090C000BB6A19687B6A1A68FB6AC9000A440E32D7
:1090D00053F82230002B0BD0BB6A19687B6A1A68E0
:1090E000FB6AC9000A440E3253F822303A6B9A6088
:1090F000BB6A19687B6A1A68FB6AC9000A440E32A7
:10910000396B43F82210BB6A1B68FA6A9B00134450
:109110005A687B6A1B68012101FA03F31946BB6A8E
:109120001B680A43F96A9B000B445A60FB6A1B6880
:10913000BA6A1268012101FA02F21A43FB6A1A6044
:10914000D7F898305B6803F00202FB681A43D7F83F
:1091500098305A6015E0D7F894305B6823F002022B
:10916000D7F894305A60D7F898305B6823F0030240
:10917000D7F898305A6004E00020FFF744FA002343
:1091800006E00020FFF73FFAD7F898300C3304339D
:109190001846A037BD4680BD80B5A2B000AF78604C
:1091A0000023FB600023BB60894B1B68C7F880303D
:1091B0007B68002B01D1002390E2FFF71BFA7B684C
:1091C000103BC7F88430D7F884305B6843F0010265
:1091D000D7F884305A60D7F8843000229A60D7F8E4
:1091E00084300022DA60D7F8843003F10C02D7F81B
:1091F00084305B6823F0030304331344FB67FB6F85
:109200005B6803F00103002B00F0C480FB6F5B6818
:10921000BB6607F10C037B6607F108033B66BB6E78
:10922000FB651F23BB65FB6D002B01D1002335E0DF
:10923000FB6D1B0C1B04002B05D1FB6D1B04FB6598
:10924000BB6D103BBB65FB6D03F07F43002B05D16D
:10925000FB6D1B02FB65BB6D083BBB65FB6D03F043
:109260007043002B05D1FB6D1B01FB65BB6D043BFF
:10927000BB65FB6D03F04043002B05D1FB6D9B00EC
:10928000FB65BB6D023BBB65FB6D002B05DBFB6D1E
:109290005B00FB65BB6D013BBB65BB6D1A467B6E1E
:1092A0001A607B6E1B68033BBA6E22FA03F3A3F1CC
:1092B00008023B6E1A607B6E1B681A1F7B6E1A6079
:1092C000FB6FBB67D7F880307B6707F10C033B6708
:1092D00007F10803FB663B6F1868FB6E1A68BB6FEB
:1092E000D9687B6FC00002440E3243F822103B6FF6
:1092F0001968FB6E1A687B6FC9000A440E3253F876
:109300002230002B0CD03B6F1968FB6E1A687B6F04
:10931000C9000A440E3253F8223000229A6026E037
:109320003B6F1B687A6F9B0013445A68FB6E1B6887
:10933000012101FA03F3DB4319463B6F1B680A4026
:10934000796F9B000B445A603B6F1B687A6F9B00E0
:1093500013445B68002B0AD17B6F1B683A6F12685D
:10936000012101FA02F2D2431A407B6F1A60BB6FEF
:1093700000229A60BB6F0022DA60D7F884305A6806
:10938000FB6F5B6823F00303134403F11002D7F86B
:1093900084305A60D7F884305B6803F00203002BF6
:1093A00000F0CC80D7F884301B68FB67FB6F5B68EC
:1093B0007B6407F10C033B6407F10803FB637B6CE0
:1093C000BB631F237B63BB6B002B03D1002337E000
:1093D000E4200020BB6B1B0C1B04002B05D1BB6BD6
:1093E0001B04BB637B6B103B7B63BB6B03F07F4356
:1093F000002B05D1BB6B1B02BB637B6B083B7B6304
:10940000BB6B03F07043002B05D1BB6B1B01BB632F
:109410007B6B043B7B63BB6B03F04043002B05D1AC
:10942000BB6B9B00BB637B6B023B7B63BB6B002B0B
:1094300005DBBB6B5B00BB637B6B013B7B637B6BC7
:109440001A463B6C1A603B6C1B68033B7A6C22FA31
:1094500003F3A3F10802FB6B1A603B6C1B681A1F35
:109460003B6C1A60FB6F7B65D7F880303B6507F17A
:109470000C03FB6407F10803BB64FB6C1868BB6C4E
:109480001A687B6DD9683B6DC00002440E3243F808
:109490002210FB6C1968BB6C1A683B6DC9000A444A
:1094A0000E3253F82230002B0CD0FB6C1968BB6CC9
:1094B0001A683B6DC9000A440E3253F8223000226C
:1094C0009A6026E0FB6C1B683A6D9B0013445A6857
:1094D000BB6C1B68012101FA03F3DB431946FB6CEB
:1094E0001B680A40396D9B000B445A60FB6C1B687B
:1094F0003A6D9B0013445B68002B0AD13B6D1B68DF
:10950000FA6C1268012101FA02F2D2431A403B6D53
:109510001A607B6D00229A607B6D0022DA60FB6F1F
:109520005A68D7F884305B6823F00303134403F1CF
:109530001002FB6F5A60FB6FC7F88430D7F8843095
:109540005B683B6207F10C03FB6107F10803BB6139
:109550003B6A7B611F233B617B69002B01D10023A8
:1095600035E07B691B0C1B04002B05D17B691B04B8
:109570007B613B69103B3B617B6903F07F43002BC0
:1095800005D17B691B027B613B69083B3B617B69C1
:1095900003F07043002B05D17B691B017B613B69A4
:1095A000043B3B617B6903F04043002B05D17B69A1
:1095B0009B007B613B69023B3B617B69002B05DBC8
:1095C0007B695B007B613B69013B3B613B691A4600
:1095D000FB691A60FB691B68033B3A6A22FA03F3D2
:1095E000A3F10802BB691A60FB691B681A1FFB69BB
:1095F0001A60D7F884303B63D7F88030FB6207F1FC
:109600000C03BB6207F108037B623B6B00229A608C
:10961000BB6A19687B6A1A68FB6AC9000A440E3281
:1096200053F822203B6BDA60BB6A19687B6A1A68C0
:10963000FB6AC9000A440E3253F82230002B0BD0CB
:10964000BB6A19687B6A1A68FB6AC9000A440E3251
:1096500053F822303A6B9A60BB6A19687B6A1A68C1
:10966000FB6AC9000A440E32396B43F82210BB6A08
:109670001B68FA6A9B0013445A687B6A1B680121C5
:1096800001FA03F31946BB6A1B680A43F96A9B0097
:109690000B445A60FB6A1B68BA6A1268012101FA1E
:1096A00002F21A43FB6A1A60D7F8843003F10C0205
:1096B000D7F884305B6823F0030304331344FB675B
:1096C000FB6F5B6843F00202FB6F5A60FB6FD7F8D9
:1096D00084201A600020FEF796FF01231846883781
:1096E000BD4680BD80B584B000AF786001F06EFCEF
:1096F000786803F0FDFCF86001F076FCFB68184622
:109700001037BD4680BD80B582B000AF78607B6801
:10971000002B06D001F05AFC786803F0F1FC01F050
:1097200063FC00BF0837BD4680BD000080B586B031
:1097300000AFF860B9607A603B60BB68002B02D074
:10974000BB68002B04D11E4802F098FC002333E0D4
:109750007A68BB689A4204D91A4802F08FFC002349
:109760002AE03B68002B02D001233B6001E000238C
:109770003B60102210213820FFF7BAF97861FB68AE
:109780007A691A607B69FB60FB6800221A61FB68DA
:10979000BA68DA60FB687A689A60FB680022DA626D
:1097A000FB6800221A63FB683A685A61FB68183349
:1097B000184600F0A0FE012318461837BD4680BDAC
:1097C000BCE1FF1FC4E1FF1F90B589B000AF786016
:1097D00039600023FB617B681B687B60FEF7DEFE5F
:1097E0007B68002B03D1FEF7EBFE0023A9E07B682A
:1097F0009B68BB61BB690133BB617B68DB68BA698D
:109800009A4214D97B685B69002B05D10123FB6167
:109810004E4802F033FC0AE07B685B69012B06D1FD
:1098200001F058FE0346002B01D10123FB61FB69C7
:10983000012B5FD1464802F021FC7B68BA699A602F
:109840003B68002B06D1434802F018FCFEF7B8FE37
:10985000002376E07B681B69002B04D17C6801F053
:10986000DBFE034623617B681B6919463A4802F018
:1098700005FC3968394802F001FC01F0CDFEF860C2
:109880007B681B693A689A4204D27B68F9683A6837
:109890000A441A61FEF794FE01F098FB7B681A698E
:1098A000FB68D31A3A6813443B607B683A681A61D4
:1098B000FA683B681344BB60BA683968284802F00C
:1098C000DDFB7B6803F1180401F048FE03461946EE
:1098D000204600F061FEB86801F04CFE01F084FB08
:1098E0000346002B04D17B6800221A61FEF744FE78
:1098F000002326E0FEF764FE7B685B69012B19D12B
:1099000001F0E8FD0346002B12D101F01BFE386187
:109910003B1D184600F0EDF83B1D1946386900F074
:109920002AF97B68BA699A607B68DB6A7B6107E029
:10993000002306E07B68BA699A607B68DB6A7B611A
:10994000012318462437BD4690BD00BFCCE1FF1F60
:10995000D8E1FF1FE4E1FF1FFCE1FF1F08E2FF1F4A
:1099600014E2FF1F90B587B000AF786039607B6864
:109970001B687B60FEF712FE7B68002B03D1FEF7AD
:109980001FFE002391E07B689A687B68DB689A423F
:1099900003D97A687B68D2689A607B689B687B6130
:1099A0007B69013B7B617B69002B62DA7B6800226B
:1099B0009A603B68002B06D13E4802F05FFBFEF741
:1099C000FFFD002371E07B681B69002B04D17C68DC
:1099D00001F022FE0346236101F01EFE38617B6820
:1099E0001B693A689A420FD27B6839693A680A441F
:1099F0001A617B681B6919462F4802F03FFB3969E1
:109A00002E4802F03BFB09E07B681B6919462A4897
:109A100002F034FB3969294802F030FBFEF7D0FD33
:109A200001F0D4FA7B681A693B69D31A3A68134487
:109A30003B607B683A681A613A693B681344FB6093
:109A40007B6803F1180401F089FD0346194620469E
:109A500000F0A2FDF86801F08DFD01F0C5FA0346A3
:109A6000002B04D17B6800221A61FEF785FD0023DC
:109A70001BE0FEF7A5FD7B687A699A607B685B69ED
:109A8000012B03D13B1D184600F08AF87B689B69C7
:109A9000002B09D07B681833184601F0A5FC03465B
:109AA000002B01D0FEF768FD012318461C37BD4688
:109AB00090BD00BF38E2FF1FFCE1FF1F4CE2FF1F1B
:109AC00080B483B000AF78607B681B687B607B6884
:109AD0009A687B68DB689A4203D97B68DA687B689E
:109AE0009A607B689B6818460C37BD465DF8047B1E
:109AF000704780B582B000AF78607B681B687B6080
:109B00007B68DB6A002B18D1102210210C20FEF795
:109B1000EFFF02467B68DA627B68DA6A7B681A6369
:109B20007B68DA6A7B685A637B68DB6A00229A602A
:109B30007B68DB6A00221A6019E0102210210C20D9
:109B4000FEF7D6FF02467B68DA627B685B6B7A6859
:109B5000D26A9A607B68DB6A7A68526B1A607B68AB
:109B6000DB6A00229A607B68DA6A7B685A6300BF0E
:109B70000837BD4680BD80B582B000AF78603960DF
:109B80003B681B683B603B68DB6A7A685A603B68ED
:109B9000DB6A184601F0B0FC00BF0837BD4680BD47
:109BA00080B586B000AF78607B681B687B6001F091
:109BB000B5FC7861002001F09FFC7B69002B1ED072
:109BC0007B693B613B691B68002B08D17B681B6B81
:109BD0007B617B681B6B9A687B681A630CE03B694E
:109BE0009B68FB603B691B68BB603B699A68BB680C
:109BF0009A60FB68BA681A607869FFF7CDFA00BF0F
:109C00001837BD4680BD000080B584B000AF7860D5
:109C100079680B48FFF7D8FDF8600948FFF750FF57
:109C200003461946074802F029FAFB68002B01D0C9
:109C3000012300E0002318461037BD4680BD00BF59
:109C4000AC000020CCE2FF1F80B584B000AF78608C
:109C500079680B48FFF786FEF8600948FFF730FF88
:109C600003461946074802F009FAFB68002B01D0A9
:109C7000012300E0002318461037BD4680BD00BF19
:109C8000AC000020CCE2FF1F80B582B000AF03F033
:109C900073F900F0BFF800F03BF9FEF7DBFDFEF7CB
:109CA00045FD0023002203210848FFF73FFD7860AF
:109CB0007B68002B03D0064802F0E0F902E005487B
:109CC00002F0DCF901F04AF9FEE700BFAC00002029
:109CD00040E3FF1F60E3FF1F80B483B000AF034683
:109CE000FB71FB7903F01F03012202FA03F1064A1C
:109CF00097F907305B0942F8231000BF0C37BD46C7
:109D00005DF8047B704700BF00E100E080B483B0E1
:109D100000AF03463960FB7197F90730002B0BDA6F
:109D20003B68DAB20C49FB7903F00F03043B1201E4
:109D3000D2B20B441A7609E03B68DAB2074997F9C8
:109D400007301201D2B20B4483F8002300BF0C3756
:109D5000BD465DF8047B704700ED00E000E100E0E7
:109D600080B483B000AF786039607B681B6823F0F3
:109D700040723B681B0603F040731A437B681A600D
:109D800000BF0C37BD465DF8047B704780B582B0DC
:109D900000AF786039603B68B3F5805F05D30B4B4B
:109DA0000B4A8C210B4803F03BF97B681B6823F4BA
:109DB0007F4323F0F0033A68120192B21A437B68A2
:109DC0001A6000BF0837BD4680BD00BF80E3FF1F9B
:109DD00070E7FF1FC4E3FF1F80B483B000AF78605B
:109DE0007B681B6823F001027B681A6000BF0C3798
:109DF000BD465DF8047B704780B483B000AF7860E7
:109E00007B6801225A6000BF0C37BD465DF8047BB9
:109E10007047000080B582B000AF134A3B4692E81D
:109E200003001860043319703B4619460F4800F0D0
:109E30001FF903210D48FFF793FF1F210B48FFF780
:109E4000A5FF03213820FFF761FF3820FFF744FF0B
:109E500003220021012000F05AFC0246044B1A6044
:109E600000BF0837BD4680BD5CE4FF1F00000D4207
:109E7000E820002080B582B000AF00237B600E4850
:109E8000FFF7AAFF00210C4800F03CF90A48FFF751
:109E9000B3FF0A4B18683A1D0023002100F031FD82
:109EA0007B68002B03D0064B4FF080521A6000BF36
:109EB0000837BD4680BD00BF00000D42E8200020ED
:109EC00004ED00E080B582B000AF0C4B9B693B60B5
:109ED00001233B7104237B71072000F04DF9074BF0
:109EE0005B693A461146184600F024F8072000F056
:109EF00068F900BF0837BD4680BD00BF08000020DC
:109F000080B400AF00BFBD465DF8047B7047000021
:109F100080B500AF03220021012000F0F8FB0246CB
:109F2000034B1A60FFF7CEFFFFF7EAFF00BF80BDCB
:109F3000EC20002080B485B000AF786039607B6889
:109F400000225A617B680022DA613B681B68FB6073
:109F50003B681B79012B09D17B685A680121FB689A
:109F600001FA03F31A437B685A6009E07B685A6878
:109F70000121FB6801FA03F3DB431A407B685A6056
:109F8000FB680F2B03D87B680C33BB6005E07B6854
:109F90001033BB60FB68103BFB603B685B79042BB4
:109FA00048D801A252F823F0BD9FFF1FD59FFF1F85
:109FB000F99FFF1F1DA0FF1F33A0FF1FBB681B6879
:109FC000FA685200032101FA02F2D2431A40BB6838
:109FD0001A602FE0BB681B68FA685200032101FA7F
:109FE00002F2D2431340FA685200012101FA02F250
:109FF0001A43BB681A601DE0BB681B68FA68520010
:10A00000032101FA02F2D2431340FA6852000221FE
:10A0100001FA02F21A43BB681A600BE0BB681B68C6
:10A02000FA685200032101FA02F21A43BB681A606F
:10A0300000E000BF00BF1437BD465DF8047B7047E9
:10A0400080B483B000AF78607B681B6843F48032D3
:10A050007B681A6000BF7B681B6803F48033002BA9
:10A06000F9D100BF0C37BD465DF8047B7047000096
:10A0700080B582B000AF786039603B68002B05D1B5
:10A080001D4B1E4A2E211E4802F0CAFF7B6800228B
:10A090001A607868FFF7D4FF3B681B78002B01D06B
:10A0A000082200E000223B685B78002B02D04FF4CE
:10A0B000002300E0002313433A689278002A02D07C
:10A0C0004FF4001200E0002213433A68D278002ACD
:10A0D00002D04FF4802200E0002213433A68127944
:10A0E000002A01D0022200E000221A437B681A6095
:10A0F00000BF0837BD4680BD64E4FF1F84E7FF1F33
:10A1000070E4FF1F80B483B000AF78600B46FB7033
:10A11000FB78002B06D07B681B6843F004027B6849
:10A120001A6005E07B681B6823F004027B681A60F4
:10A1300000BF0C37BD465DF8047B704780B485B026
:10A1400000AF78607B681B683F2B02D8084BFB6030
:10A1500007E0084BFB607B681B68A3F140027B684B
:10A160001A60FB6818461437BD465DF8047B7047DB
:10A1700000400F4200800F4280B584B000AF78608D
:10A180007B68BB6007F108031846FFF7D7FFF8604C
:10A1900000BFBB68FA68D35CDBB203F00F03002B8F
:10A1A000F7D1BB68FA680621D154BB68FA68D35C62
:10A1B000DBB203F00F03062BEAD100BF1037BD4618
:10A1C00080BD80B584B000AF78607B68BB6007F16C
:10A1D00008031846FFF7B2FFF860BB68FA68002171
:10A1E000D15400BF1037BD4680BD000080B582B09D
:10A1F00000AF786039603B68002B05D11C4B1D4ACD
:10A2000031211D4802F00CFF7B68D3F8803023F029
:10A2100001027B68C3F88020786800F02FF87B6823
:10A22000D3F884203B6899683B68DB6819433B6836
:10A230001B6919433B685B690B43134343F480423A
:10A240007B68C3F884207B68D3F8883043F004022D
:10A250007B68C3F888203B6819683B685B681A46CE
:10A26000786800F059F800BF0837BD4680BD00BFD0
:10A27000C0E4FF1F90E7FF1FCCE4FF1F80B483B052
:10A2800000AF78607B68D3F8803023F001027B68F0
:10A29000C3F880207B680022C3F880207B680122FD
:10A2A000C3F884207B684FF4E062C3F888207B68A1
:10A2B0004FF40042C3F88C207B6840F60102C3F8DB
:10A2C00090207B682B22C3F89C207B680022C3F877
:10A2D000A0207B680022C3F8B0207B686022C3F80E
:10A2E000B4207B680022C3F8B8207B68D3F88430A0
:10A2F00023F001027B68C3F8842000BF7B68D3F899
:10A30000843003F00103002BF8D000BF0C37BD46AA
:10A310005DF8047B7047000080B48DB000AFF8603A
:10A32000B9607A600123FB61BB68FB627B681B013B
:10A33000BB6201237B620CE0BB6A7B62FB6ABA6A88
:10A34000B3FBF2F2B96A01FB02F29B1ABB627B6AB1
:10A35000FB62BB6A002BEFD1BA687B6AB2FBF3F3F6
:10A36000FB627B681A017B6AB2FBF3F3BB62FB6A98
:10A370004E4A934203D8BB6AB3F5803F2CD3FB6AA5
:10A380005A1E4B4BA3FB0213D21A520813449B0CC8
:10A390000133BB61BB6A013B464AA2FB0323DB0BD3
:10A3A00001337B617A69BB69934238BF13463B61D5
:10A3B000FA6A3B69B2FBF3F3FB62BA6A3B69B2FB30
:10A3C000F3F3BB62FB6A002B01D10123FB62BB6A82
:10A3D000002B01D10123BB62FB6A013B354AA2FB82
:10A3E0000323DB0B0133FB61FB69013B062B26D802
:10A3F00001A252F823F000BF15A4FF1F1BA4FF1FEA
:10A4000021A4FF1F27A4FF1F2DA4FF1F33A4FF1F9C
:10A4100039A4FF1F05233B6213E004233B6210E0D5
:10A4200003233B620DE002233B620AE001233B620F
:10A4300007E000233B6204E006233B6201E00523C2
:10A440003B62FB68D3F8903023F46072FB68C3F87A
:10A450009020FB68D3F890203B6ADB0103F4607323
:10A460001A43FB68C3F89020BB6A013B9AB2FB68B1
:10A47000C3F8A420FA6AFB69B2FBF3F3013B9AB27A
:10A48000FB68C3F8A820FB694FF47A7202FB03F360
:10A49000BA68B2FBF3F323F07F42FB68C3F8B02045
:10A4A00000BF3437BD465DF8047B7047F9FF0600F6
:10A4B000B96D93240180008080B485B000AF7860CE
:10A4C00039600023FB603B681A0C7B681344FB6017
:10A4D000FB681A683B689BB222FA03F303F001039E
:10A4E000002B14BF01230023DBB218461437BD46EE
:10A4F0005DF8047B704780B483B000AF78607B6800
:10A5000003F108027B685A607B684FF0FF329A6063
:10A510007B6803F108027B68DA607B6803F108025C
:10A520007B681A617B6800221A6000BF0C37BD4649
:10A530005DF8047B704780B483B000AF78607B68BF
:10A5400000221A6100BF0C37BD465DF8047B7047DE
:10A5500080B485B000AF786039607B685B68FB6071
:10A560003B68FA685A60FB689A683B689A60FB68C7
:10A570009B683A685A60FB683A689A603B687A68F8
:10A580001A617B681B685A1C7B681A6000BF14370D
:10A59000BD465DF8047B704780B485B000AF78603D
:10A5A00039603B681B68BB60BB68B3F1FF3F03D1F8
:10A5B0007B681B69FB600CE07B680833FB6002E092
:10A5C000FB685B68FB60FB685B681B68BA689A4263
:10A5D000F6D2FB685A683B685A603B685B683A6829
:10A5E0009A603B68FA689A60FB683A685A603B6810
:10A5F0007A681A617B681B685A1C7B681A6000BF06
:10A600001437BD465DF8047B704780B485B000AF59
:10A6100078607B681B69FB607B685B687A6892681E
:10A620009A607B689B687A6852685A60FB685B68CE
:10A630007A689A4203D17B689A68FB685A607B68A3
:10A6400000221A61FB681B685A1EFB681A60FB68CF
:10A650001B6818461437BD465DF8047B704780B50B
:10A6600084B000AF786039607B68FB60FB68002BCA
:10A6700002D1FDF7BFFFFEE7FDF790FFFB681A6808
:10A68000FB68DB6BF968096C01FB03F31A44FB6898
:10A690005A60FB6800229A63FB681A68FB689A603C
:10A6A000FB681A68FB68DB6B013BF968096C01FB0E
:10A6B00003F31A44FB68DA60FB684FF0FF325A6418
:10A6C000FB684FF0FF329A643B68002B0ED1FB68A9
:10A6D0001B69002B14D0FB681033184600F084FE71
:10A6E0000346012B0CD1FDF747FF09E0FB6810334F
:10A6F0001846FFF700FFFB6824331846FFF7FBFE00
:10A70000FDF75EFF012318461037BD4680BD80B5BA
:10A7100088B000AFF860B9601346FB710023FB619D
:10A72000FB68002B26D04C20FEF7DCFFB861BB692C
:10A73000002B1FD0FB68BA6802FB03F301337B6177
:10A740007869FEF7CFFF0246BB691A60BB691B68D8
:10A75000002B0CD0BB69FA68DA63BB69BA681A646B
:10A760000121B869FFF77BFFBB69FB6102E0B869B3
:10A77000FEF7C9FFFB69002B02D1FDF73BFFFEE7A7
:10A78000FB6918462037BD4680BD80B588B000AF54
:10A79000F860B9607A603B600023FB61FB68BB61D5
:10A7A000BB69002B02D1FDF725FFFEE7BB68002B3C
:10A7B00003D1BB691B6C002B01D1012300E00023F6
:10A7C000002B02D1FDF716FFFEE73B68022B03D1F9
:10A7D000BB69DB6B012B01D1012300E00023002BBF
:10A7E00002D1FDF707FFFEE701F0E2F80346002B78
:10A7F00002D17B68002B01D1012300E00023002B54
:10A8000002D1FDF7F7FEFEE7FDF7C8FEBB699A6BC4
:10A81000BB69DB6B9A4202D33B68022B16D13A68C4
:10A82000B968B86900F09CF9BB695B6A002B09D074
:10A83000BB692433184600F0D7FD0346012B01D134
:10A84000FDF79AFEFDF7BCFE012356E07B68002B66
:10A8500003D1FDF7B5FE00234FE0FB69002B06D1C5
:10A8600007F11003184600F01BFE0123FB61FDF702
:10A87000A7FE00F0ABFBFDF791FEBB695B6CB3F18B
:10A88000FF3F02D1BB6900225A64BB699B6CB3F1E4
:10A89000FF3F02D1BB6900229A64FDF791FE3A1D89
:10A8A00007F110031146184600F0C8FE0346002BBE
:10A8B0001DD1B86900F036FA0346002B11D0BB69F0
:10A8C00010337A681146184600F030FDB86900F080
:10A8D000C7F900F089FB0346002B95D1FDF74CFE2C
:10A8E00092E7B86900F0BCF900F07EFB8CE7B8692C
:10A8F00000F0B6F900F078FB002318462037BD467B
:10A9000080BD80B588B000AFF860B9607A603B6008
:10A91000FB68BB61BB69002B02D1FDF76BFEFEE754
:10A92000BB68002B03D1BB691B6C002B01D1012339
:10A9300000E00023002B02D1FDF75CFEFEE73B6840
:10A94000022B03D1BB69DB6B012B01D1012300E09A
:10A950000023002B02D1FDF74DFEFEE7FDF7B8FE08
:10A96000FDF748FE7861BB699A6BBB69DB6B9A4265
:10A9700002D33B68022B24D13A68B968B86900F069
:10A98000EFF8BB699B6CB3F1FF3F12D1BB695B6A07
:10A99000002B13D0BB692433184600F025FD034675
:10A9A000002B0BD07B68002B08D07B6801221A603B
:10A9B00004E0BB699B6C5A1CBB699A640123FB6170
:10A9C00001E00023FB617869FDF71DFEFB69184675
:10A9D0002037BD4680BD80B58AB000AFF860B96051
:10A9E0007A603B6000237B62FB683B623B6A002B22
:10A9F00002D1FDF7FFFDFEE7BB68002B03D13B6AE8
:10AA00001B6C002B01D1012300E00023002B02D19D
:10AA1000FDF7F0FDFEE700F0CBFF0346002B02D16F
:10AA20007B68002B01D1012300E00023002B02D121
:10AA3000FDF7E0FDFEE7FDF7B1FD3B6A9B6B002BE8
:10AA400032D03B6ADB68FB61B968386A00F0E2F833
:10AA50003B68002B13D13B6A9B6B5A1E3B6A9A637F
:10AA60003B6A1B69002B1BD03B6A1033184600F071
:10AA7000BBFC0346012B13D1FDF77EFD10E03B6AC2
:10AA8000FA69DA603B6A5B6A002B09D03B6A2433BF
:10AA9000184600F0A9FC0346002B01D0FDF76CFD21
:10AAA000FDF78EFD012357E07B68002B03D1FDF7F6
:10AAB00087FD002350E07B6A002B06D107F11403C9
:10AAC000184600F0EDFC01237B62FDF779FD00F0F4
:10AAD0007DFAFDF763FD3B6A5B6CB3F1FF3F02D18A
:10AAE0003B6A00225A643B6A9B6CB3F1FF3F02D180
:10AAF0003B6A00229A64FDF763FD3A1D07F11403D7
:10AB00001146184600F09AFD0346002B1ED1386A04
:10AB100000F0F2F80346002B12D03B6A24337A6827
:10AB20001146184600F002FC386A00F099F800F06F
:10AB30005BFA0346002B7FF47EAFFDF71DFD7AE73D
:10AB4000386A00F08DF800F04FFA74E7386A00F0C8
:10AB500087F800F049FA002318462837BD4680BD23
:10AB600080B584B000AFF860B9607A60FB681B6C98
:10AB7000002B46D07B68002B19D1FB689868FB68D6
:10AB80001B6C1A46B96802F0C3FAFB689A68FB6846
:10AB90001B6C1A44FB689A60FB689A68FB685B68E8
:10ABA0009A422ED3FB681A68FB689A6029E0FB681A
:10ABB000D868FB681B6C1A46B96802F0A9FAFB68F2
:10ABC000DA68FB681B6C5B421A44FB68DA60FB685E
:10ABD000DA68FB681B689A4207D2FB685A68FB6810
:10ABE0001B6C5B421A44FB68DA607B68022B08D15D
:10ABF000FB689B6B002B04D0FB689B6B5A1EFB68A9
:10AC00009A63FB689B6B5A1CFB689A6300BF103702
:10AC1000BD4680BD80B582B000AF786039607B688A
:10AC20001B68002B18D07B68DA687B681B6C1A44A1
:10AC30007B68DA607B68DA687B685B689A4203D37A
:10AC40007B681A687B68DA607B68D9687B681B6CF4
:10AC50001A46386802F05CFA00BF0837BD4680BD6E
:10AC600080B582B000AF7860FDF798FC12E07B6899
:10AC70005B6A002B13D07B682433184600F0B4FBCA
:10AC80000346002B01D000F029FD7B689B6C5A1E07
:10AC90007B689A647B689B6C002BE8DC00E000BF5B
:10ACA0007B684FF0FF329A64FDF78AFCFDF776FC73
:10ACB00012E07B681B69002B13D07B6810331846A9
:10ACC00000F092FB0346002B01D000F007FD7B68EB
:10ACD0005B6C5A1E7B685A647B685B6C002BE8DCFB
:10ACE00000E000BF7B684FF0FF325A64FDF768FC5C
:10ACF00000BF0837BD4680BD80B584B000AF786026
:10AD0000FDF74CFC7B689B6B002B02D10123FB60A1
:10AD100001E00023FB60FDF753FCFB681846103789
:10AD2000BD4680BD80B584B000AF7860FDF736FCCD
:10AD30007B689A6B7B68DB6B9A4202D10123FB60D4
:10AD400001E00023FB60FDF73BFCFB681846103771
:10AD5000BD4680BD80B485B000AF78603960002307
:10AD6000FB6014E00E4AFB6852F83330002B0BD125
:10AD70000B49FB683A6841F83320094AFB68DB005D
:10AD800013447A685A6005E0FB680133FB60FB6896
:10AD9000072BE7D900BF1437BD465DF8047B704729
:10ADA000F020002080B584B000AF786039607B6807
:10ADB000FB60FDF7F3FBFB685B6CB3F1FF3F02D177
:10ADC000FB6800225A64FB689B6CB3F1FF3F02D121
:10ADD000FB6800229A64FDF7F3FBFB689B6B002B7A
:10ADE00005D1FB6824333968184600F0D5FAF868B5
:10ADF000FFF736FF00BF1037BD4680BD80B58AB073
:10AE000002AFF860B9603B601346FB80FB68002B23
:10AE100002D1FDF7EFFBFEE7BB6A042B02D9FDF779
:10AE2000E9FBFEE7FB88396B184600F063FDB8616B
:10AE3000BB69002B6ED0BB691A6BFB8803F18043A2
:10AE4000013B9B0013447B617B6923F007037B611B
:10AE50007B6903F00703002B02D0FDF7CBFBFEE775
:10AE6000FB8800937B6BBA6AB968B86900F049FC4B
:10AE70003A68F9687869FDF7B3FA0246BB691A6067
:10AE8000FB6A002B02D0FB6ABA691A60FDF786FBE9
:10AE90002C4B1B6801332B4A13602B4B1B68002B78
:10AEA00009D1294ABB691360264B1B68012B0FD1BE
:10AEB00000F06EFC0CE0254B1B68002B08D1224BE8
:10AEC0001B68DB6ABA6A9A4202D31F4ABB691360E5
:10AED0001F4B1B6801331E4A1360BB69DA6A1D4BA6
:10AEE0001B689A4203D9BB69DB6A1A4A1360BB69C3
:10AEF000DA6A13469B0013449B00174A1A44BB6945
:10AF0000043319461046FFF723FB0123FB61FDF7CD
:10AF100057FB02E04FF0FF33FB61FB69012B0BD1C4
:10AF20000A4B1B68002B07D0074B1B68DB6ABA6A09
:10AF30009A4201D9FDF720FBFB6918462037BD4630
:10AF400080BD00BF082200203021002014220020F4
:10AF500024220020102200203421002080B586B059
:10AF600004AF0023039300230293002301930023E3
:10AF700000930023822211491148FFF73FFF7860B8
:10AF80007B68012B02D100F031FD78607B68012BDA
:10AF90000AD1FDF72FFB0B4B01221A600A4B00224E
:10AFA0001A60FDF781FA05E07B68002B02D1FDF7FE
:10AFB00021FBFEE700BF0837BD4680BD18E6FF1F36
:10AFC000F5B6FF1F142200200C22002080B400AF31
:10AFD000044B1B680133034A136000BFBD465DF894
:10AFE000047B70472822002080B582B000AF002388
:10AFF0007B60384B1B68002B02D1FDF7FBFAFEE7A4
:10B00000FDF7CCFA334B1B68013B324A1360314BDE
:10B010001B68002B56D1304B1B68002B52D02FE001
:10B020002E4BDB68DB683B603B6818331846FFF744
:10B03000ECFA3B6804331846FFF7E7FA3B68DA6A34
:10B04000274B1B689A4203D93B68DB6A244A13608A
:10B050003B68DA6A13469B0013449B00214A1A445A
:10B060003B68043319461046FFF772FA3B68DA6A08
:10B070001D4B1B68DB6A9A4202D31C4B01221A60EB
:10B08000164B1B68002BCBD1194B1B68002B11D022
:10B090000CE000F041F80346002B02D0134B0122D4
:10B0A0001A60134B1B68013B114A1360104B1B685D
:10B0B000002BEED10D4B1B68012B03D101237B60CC
:10B0C000FDF75AFAFDF77CFA7B6818460837BD464B
:10B0D00080BD00BF2822002008220020C8210020B7
:10B0E0001022002034210020302100201C220020CA
:10B0F0001822002080B582B000AFFDF74FFA054B53
:10B100001B687B60FDF75CFA7B6818460837BD4614
:10B1100080BD00BF0C22002080B586B000AF0023A8
:10B120007B614E4B1B68002B40F087804C4B1B68AB
:10B1300001334B4A13604A4B1B683B613B69002B50
:10B1400018D1484B1B681B68002B02D0FDF752FA40
:10B15000FEE7444B1B68FB60434B1B68414A13608E
:10B16000414AFB681360414B1B6801333F4A13603F
:10B1700000F0F8FB3E4B1B683A699A424ED3394BBC
:10B180001B681B68002B01D1012300E00023002B6A
:10B1900004D0374B4FF0FF321A603FE0314B1B6851
:10B1A000DB68DB68BB60BB685B687B603A697B68B7
:10B1B0009A4203D22E4A7B6813602FE0BB680433A7
:10B1C0001846FFF722FABB689B6A002B04D0BB68C5
:10B1D00018331846FFF719FABB68DA6A254B1B6863
:10B1E0009A4203D9BB68DB6A224A1360BB68DA6AF9
:10B1F00013469B0013449B001F4A1A44BB68043348
:10B2000019461046FFF7A4F9BB68DA6A1B4B1B68A6
:10B21000DB6A9A42B3D301237B61B0E7174B1B680B
:10B22000DA6A154913469B0013449B000B441B68C4
:10B23000012B07D901237B6104E0114B1B6801330B
:10B240000F4A13600F4B1B68002B01D001237B6159
:10B250007B6918461837BD4680BD00BF28220020F4
:10B260000C220020C0210020C42100202022002028
:10B270000400002010220020342100203021002072
:10B28000182200201C22002080B582B000AF224B83
:10B290001B68002B03D0214B01221A6038E01F4BA2
:10B2A00000221A600BE01E4B1B68002B02D1FDF739
:10B2B000A1F9FEE71A4B1B68013B194A1360184BB2
:10B2C0001A68184913469B0013449B000B441B68E3
:10B2D000002BE8D0124B1A6813469B0013449B00C6
:10B2E000104A13447B607B685B685A687B685A60CD
:10B2F0007B685A687B6808339A4204D17B685B6834
:10B300005A687B685A607B685B68DB68064A136032
:10B3100000BF0837BD4680BD282200201C22002027
:10B3200010220020342100203021002080B584B07C
:10B3300000AF786039607B68002B02D1FDF75AF9C5
:10B34000FEE7124B1B68183319467868FFF724F99B
:10B350000E4B1B6804331846FFF757F93B68B3F1EF
:10B36000FF3F07D1094B1B68043319460848FFF714
:10B37000EFF807E0074B1B683A681344FB60F86876
:10B3800000F082FA00BF1037BD4680BD302100209A
:10B39000F42100200C22002080B584B000AF78603A
:10B3A00039607B68002B02D1FDF724F9FEE70C4BD6
:10B3B0001B68183319467868FFF7CAF8084B1B68F2
:10B3C00004331846FFF721F9064B1B683A6813440B
:10B3D000FB60F86800F058FA00BF1037BD4680BD2A
:10B3E000302100200C22002080B584B000AF7860AE
:10B3F0007B68DB68DB68BB60BB68002B02D1FDF7B4
:10B40000F9F8FEE7BB6818331846FFF7FEF81E4B45
:10B410001B68002B1DD1BB6804331846FFF7F5F8F5
:10B42000BB68DA6A194B1B689A4203D9BB68DB6AAE
:10B43000164A1360BB68DA6A13469B0013449B00EC
:10B44000134A1A44BB68043319461046FFF780F8C4
:10B4500005E0BB68183319460E48FFF779F8BB685A
:10B46000DA6A0D4B1B68DB6A9A4205D90123FB603F
:10B470000A4B01221A6001E00023FB60FB681846BA
:10B480001037BD4680BD00BF2822002010220020BA
:10B4900034210020C8210020302100201C2200205F
:10B4A00080B582B000AF78607B68002B02D1FDF7D9
:10B4B000A1F8FEE7054B1A687B681A60044B1A680E
:10B4C0007B685A6000BF0837BD4680BD202200203F
:10B4D0000C22002080B400AF064B1B685B6B002B76
:10B4E00001D0012300E000231846BD465DF8047B2F
:10B4F000704700BF3021002080B483B000AF786077
:10B50000054B1B687A685A63012318460C37BD4601
:10B510005DF8047B704700BF3021002080B400AF8D
:10B52000074B1B685B6B002B03D0054B1B685B6BE9
:10B5300000E000231846BD465DF8047B704700BF5D
:10B540003021002080B400AF034B1B681846BD4675
:10B550005DF8047B704700BF3021002080B400AF4D
:10B56000034B1B6818331846BD465DF8047B7047D3
:10B570003021002080B584B000AF78600123FB60EB
:10B580001F4B1B68BB601F4B1B6804331846FFF73B
:10B590003CF87B68B3F1FF3F0AD1FB68002B07D072
:10B5A000184B1B68043319461748FEF7D1FF22E0F9
:10B5B000144B1B687A685A607A68BB689A4209D251
:10B5C000124B1A680F4B1B68043319461046FEF7DE
:10B5D000E3FF10E00E4B1A680A4B1B680433194650
:10B5E0001046FEF7D9FF0B4B1B687A689A4202D2CD
:10B5F000084A7B68136000BF1037BD4680BD00BF9E
:10B600000C22002030210020F4210020C421002041
:10B61000C02100200400002080B582B000AFFCF7FC
:10B62000BDFF054B1B687B60FCF7CAFF7B681846B3
:10B630000837BD4680BD00BF0C22002080B584B015
:10B6400000AF786039607B68002B02D1FCF7D2FF35
:10B65000FEE73B68002B02D1FCF7CCFFFEE7FCF7CE
:10B660009DFF1C4B1B68BB603B681B68B3F1FF3F31
:10B6700002D10023FB6026E07B681A68164B1B682A
:10B680009A4207D07B685B68BA689A4202D301236A
:10B69000FB6018E07B685B68BA68D21A3B681B687D
:10B6A0009A420ED23B681A687B685968BB68CB1A0D
:10B6B0001A443B681A607868FFF7F2FE0023FB60CB
:10B6C00001E00123FB60FCF77BFFFB6818461037A5
:10B6D000BD4680BD0C2200202022002080B400AF97
:10B6E000034B01221A6000BFBD465DF8047B704722
:10B6F0001C22002080B582B000AF786000F088F88E
:10B70000FCE780B586B000AFF860B9607A603B6056
:10B7100000237B6112E0BA687B6913441978FA68E8
:10B720007B69134438330A461A70BA687B6913443C
:10B730001B78002B06D07B6901337B617B69092B69
:10B74000E9D900E000BFFB68002283F841207B6854
:10B75000042B01D904237B60FB687A68DA62FB68FA
:10B7600004331846FEF7E7FEFB6818331846FEF769
:10B77000E2FEFB68FA681A617B68C3F10502FB68A8
:10B780009A61FB68FA685A6200BF1837BD4680BDEF
:10B7900080B582B000AF00237B600CE07A6813466E
:10B7A0009B0013449B00124A13441846FEF7A3FE65
:10B7B0007B6801337B607B68042BEFD90D48FEF773
:10B7C0009AFE0D48FEF797FE0C48FEF794FE0C48D3
:10B7D000FEF791FE0B48FEF78EFE0B4B054A1A60F2
:10B7E0000A4B054A1A6000BF0837BD4680BD00BF3E
:10B7F0003421002098210020AC210020C821002005
:10B80000DC210020F4210020C0210020C4210020E0
:10B8100080B582B000AF28E0FFF7D8FB174B1B685C
:10B82000002B0CBF01230023DBB27B60FFF7DCFBA6
:10B830007B68002B19D1FCF7B1FE104BDB68DB688D
:10B840003B603B6804331846FEF7DFFE0C4B1B6879
:10B85000013B0B4A13600B4B1B68013B094A136009
:10B86000FCF7AEFE386800F06DF8064B1B68002B45
:10B87000D2D100BF0837BD4680BD00BFDC2100200B
:10B8800008220020F021002080B582B000AF78604F
:10B89000134B1B687A685A60124B1B687A689A428D
:10B8A00009D2114B1A680E4B1B6804331946104617
:10B8B000FEF772FE10E00D4B1A68094B1B6804334B
:10B8C00019461046FEF768FE094B1B687A689A42D3
:10B8D00002D2074A7B68136000BF0837BD4680BDAF
:10B8E000302100200C220020C4210020C021002093
:10B8F0000400002080B584B000AF03463960FB80AF
:10B900004420FDF7EFFEF860FB68002B15D03B6884
:10B91000002B06D1FB889B001846FDF7E3FE03468B
:10B9200000E03B68FA681363FB681B6B002B04D1D3
:10B93000F868FDF7E8FE0023FB60FB681846103747
:10B94000BD4680BD80B582B000AF78607B681B6B60
:10B950001846FDF7D8FE7868FDF7D5FE00BF08371A
:10B96000BD4680BD80B483B000AF0F4B1B681B6821
:10B97000002B01D1012300E00023002B04D00B4B4E
:10B980004FF0FF321A6008E0074B1B68DB68DB688A
:10B990007B607B685B68054A136000BF0C37BD465F
:10B9A0005DF8047B704700BFC02100200400002028
:10B9B00080B483B000AF0B4B1B68002B02D1012376
:10B9C0007B6008E0084B1B68002B02D102237B60E0
:10B9D00001E000237B607B6818460C37BD465DF8AC
:10B9E000047B7047142200202822002080B586B0F6
:10B9F00004AF00237B6000F047FA0F4B1B68002B5D
:10BA00000FD000230393002302930023019302230A
:10BA1000009300234FF4827208490948FFF7EEF9BA
:10BA200078607B68002B02D1FCF7E4FDFEE77B68C1
:10BA300018460837BD4680BD5C22002020E6FF1F67
:10BA400035BBFF1F80B588B000AFF860B9607A6081
:10BA50003B600023FB611A4B1B68002B2AD0BB689C
:10BA60003B617B687B61FB68BB61BB68052B18DCB5
:10BA7000FFF79EFF0346022B09D1114B186807F10F
:10BA800010010023BA6AFEF780FEF86112E00C4B49
:10BA9000186807F1100100230022FEF776FEF86116
:10BAA00008E0074B186807F1100100233A68FEF719
:10BAB00028FFF861FB6918462037BD4680BD00BFEE
:10BAC0005C22002080B586B002AF78603960184BE8
:10BAD0001B68DB68DB68FB60FB6804331846FEF715
:10BAE00094FDFB68DB69012B1AD1FB689A697B68BE
:10BAF000D1187B683A68F86800F0A8F80346012B73
:10BB00000ED10023009300237A680021F868FFF724
:10BB100099FFB860BB68002B02D1FCF76BFDFEE714
:10BB2000FB685B6AF868984700BF1037BD4680BD68
:10BB30005422002080B584B000AF786007F108037C
:10BB4000184600F03FF8F860BB681946F86800F046
:10BB500003F800F0BDF8F1E780B584B000AF78607D
:10BB60003960FFF733FA07F10803184600F04EF882
:10BB7000F860BB68002B1DD13B68002B0AD17A68A6
:10BB8000FB689A4206D8FFF72FFAF9687868FFF742
:10BB900099FF11E00A4B18687A68FB68D31A1946B6
:10BBA000FFF700F9FFF720FA0346002B04D1FCF75A
:10BBB000E3FC01E0FFF718FA00BF1037BD4680BD77
:10BBC0005C22002080B485B000AF78600E4B1B680B
:10BBD0001B68002B0CBF01230023DBB21A467B68D5
:10BBE0001A607B681B68002B05D1074B1B68DB685C
:10BBF0001B68FB6001E00023FB60FB6818461437FC
:10BC0000BD465DF8047B70475422002080B584B0A7
:10BC100000AF7860FFF76EFAF8600B4B1B68FA68AC
:10BC20009A4205D200F0D6F87B6801221A6002E041
:10BC30007B6800221A60044AFB681360FB681846A0
:10BC40001037BD4680BD00BF6022002080B586B0A1
:10BC500000AFF860B9607A603B6000237B61FB68ED
:10BC6000BA685A60FB68FA681A61BA687B689A42D7
:10BC700012D87A683B68D21AFB689B699A4202D351
:10BC800001237B611BE0104B1A68FB6804331946E3
:10BC90001046FEF781FC12E07A683B689A4206D2B1
:10BCA000BA683B689A4202D301237B6107E0074BE5
:10BCB0001A68FB68043319461046FEF76DFC7B6971
:10BCC00018461837BD4680BD582200205422002057
:10BCD00080B58AB002AF6CE0BB68002B68DB3B69C3
:10BCE000FB61FB695B69002B04D0FB6904331846D8
:10BCF000FEF78BFC3B1D1846FFF788FFB861BB6859
:10BD0000092B56D801A252F823F000BF35BDFF1F02
:10BD100035BDFF1F35BDFF1FB3BDFF1F81BDFF1F19
:10BD2000A9BDFF1F35BDFF1F35BDFF1FB3BDFF1FE1
:10BD300081BDFF1FFA68FB699B69D118FB68BA696E
:10BD4000F869FFF783FF0346012B32D1FB695B6A79
:10BD5000F8699847FB69DB69012B2AD1FA68FB690E
:10BD60009B691A440023009300230021F869FFF720
:10BD700069FE78617B69002B1BD1FCF73BFCFEE779
:10BD8000FA68FB699A61FB699B69002B02D1FCF799
:10BD900031FCFEE7FB699A69BB69D118BB69BA69D6
:10BDA000F869FFF753FF04E0F869FDF7ACFC00E029
:10BDB00000BF074B186807F1080100230022FEF7B7
:10BDC0000AFE0346002B87D100BF2037BD4680BD49
:10BDD0005C22002080B588B002AF3DE0284B1B6894
:10BDE000DB681B683B61264B1B68DB68DB68FB601C
:10BDF000FB6804331846FEF708FCFB685B6AF868CA
:10BE00009847FB68DB69012B26D1FB689B693A697F
:10BE10001344BB60BA683B699A420ED9FB68BA68A2
:10BE20005A60FB68FA681A61154B1A68FB6804339C
:10BE300019461046FEF7B0FB0EE0002300930023E6
:10BE40003A690021F868FFF7FDFD78607B68002BF8
:10BE500002D1FCF7CFFBFEE7094B1B681B68002BE8
:10BE6000BCD1074B1B687B61064B1B68044A1360FF
:10BE7000044A7B69136000BF1837BD4680BD00BF10
:10BE8000542200205822002080B500AFFCF786FB2A
:10BE9000164B1B68002B24D11548FEF72CFB1548C8
:10BEA000FEF729FB144B124A1A60144B114A1A6010
:10BEB00000220C210A20FEF72AFC02460B4B1A60D6
:10BEC0000A4B1B68002B02D1FCF794FBFEE7074BE3
:10BED0001B68002B05D0054B1B6809491846FEF767
:10BEE00039FFFCF76DFB00BF80BD00BF5C22002066
:10BEF0002C22002040220020542200205822002022
:10BF000028E6FF1F80B483B000AF78607B68D3F869
:10BF1000803043F001027B68C3F8802000BF0C37FB
:10BF2000BD465DF8047B704780B483B000AF786095
:10BF30000B46FB70FA787B681A6400BF0C37BD466D
:10BF40005DF8047B704780B483B000AF78607B6895
:10BF50001B68DBB218460C37BD465DF8047B7047A2
:10BF600080B58AB000AFF860B9607A60174B1B7873
:10BF7000002B01D0032325E0144AFB685360BB6803
:10BF80003B617B687B612023BB610023FB61002355
:10BF90003B6206237B620D4B5B6807F11002114682
:10BFA0001846FEF723F9094B5B681846FFF7AAFF0E
:10BFB000064B074A9A60054B064ADA60034B01229A
:10BFC0001A70002318462837BD4680BD6422002021
:10BFD00011C1FF1F75C1FF1F80B584B000AFF860AD
:10BFE000B9607A60BB68002B02D14FF0FF331AE0D2
:10BFF000FB68012B05D0FB68022B02D04FF0FF330A
:10C0000011E00B4B1B7883F00103DBB2002B02D055
:10C010004FF0FF3307E0064B9B68054A50687A688B
:10C02000B96898477B6818461037BD4680BD00BF89
:10C030006422002080B584B000AFF860B9607A60F7
:10C04000FB68002B02D04FF0FF3311E00A4B1B7846
:10C0500083F00103DBB2002B02D04FF0FF3307E087
:10C06000054BDB68044A50687A68B96898477B6872
:10C0700018461037BD4680BD642200200FB480B53D
:10C0800084B002AF0F4B1B7883F00103DBB2002BAF
:10C0900002D04FF0FF330DE007F114033B603B6823
:10C0A00000933B694FF0FF320749002000F088F809
:10C0B00078607B6818460837BD46BDE8804004B00C
:10C0C000704700BF64220020CDC0FF1F80B584B040
:10C0D00000AF786039607B68DBB2FB730B4B1B7879
:10C0E00083F00103DBB2002B02D04FF0FF3308E0F6
:10C0F000064B9B68054A506807F10F0101229847DB
:10C10000002318461037BD4680BD00BF64220020C2
:10C1100080B584B000AFF860B9607A601DE0BB689C
:10C120005A1CBA601B781946F868FFF7FDFE00BF7D
:10C130000E49F868FEF7C0F9034683F00103DBB24D
:10C14000002BF5D100BF0A49F868FEF7B5F90346A0
:10C1500083F00103DBB2002BF5D17B685A1E7A60B5
:10C16000002BDCD100BF1037BD4680BD0E0098000B
:10C170000300980080B584B000AFF860B9607A60C1
:10C1800015E000BF4FF41801F868FEF795F9034673
:10C1900083F00103DBB2002BF4D1F868FFF7D3FE84
:10C1A00003461A46BB681A70BB680133BB607B68E4
:10C1B0005A1E7A60002BE4D100BF1037BD4680BD07
:10C1C00080B5A4B004AFF860B9607A603B6000232A
:10C1D000FB617B683B657B68B3F1FF3F01D1B04BEE
:10C1E0007B603B68FB677CE3FB6C252B07D0BB685F
:10C1F000F968F86C9847FB690133FB616EE3012332
:10C2000087F85B300023FB6600233B674BE0FB6F46
:10C210000133FB67FB6F1B78203B102B3DD801A23D
:10C2200052F823F07DC2FF1F9BC2FF1F9BC2FF1F5E
:10C2300091C2FF1F9BC2FF1F9BC2FF1F9BC2FF1F1C
:10C240009BC2FF1F9BC2FF1F9BC2FF1F9BC2FF1F02
:10C2500073C2FF1F9BC2FF1F69C2FF1F9BC2FF1F4C
:10C260009BC2FF1F87C2FF1FFB6E43F00103FB66EB
:10C2700019E0FB6E43F00203FB6614E0FB6E43F033
:10C280000403FB660FE0FB6E43F00803FB660AE065
:10C29000FB6E43F01003FB6605E0FB6F013BFB67A1
:10C2A00001233B6700BF3B6F002BB0D00023BB6670
:10C2B00000233B671AE0FB6F0133FB67FB6F1B78C2
:10C2C000FB64FB6C303B092B0AD8BA6E13469B000B
:10C2D00013445B001A46FB6C1344303BBB6605E01D
:10C2E000FB6F013BFB6701233B6700BF3B6F002BEC
:10C2F000E1D006237B65FB6F0133FB67FB6F1B7887
:10C300002E2B23D100237B6500233B671AE0FB6FB4
:10C310000133FB67FB6F1B78FB64FB6C303B092B25
:10C320000AD87A6D13469B0013445B001A46FB6CD7
:10C330001344303B7B6505E0FB6F013BFB6701234A
:10C340003B6700BF3B6F002BE1D002E0FB6F013B7E
:10C35000FB67FB6F0133FB67FB6F1B78682B04D017
:10C360006C2B0DD04C2B1AD015E0FB6F0133FB6703
:10C37000FB6F1B78682B14D0FB6F013BFB6710E051
:10C38000FB6F0133FB67FB6F1B786C2B0BD0FB6FD4
:10C39000013BFB6707E0FB6F013BFB6704E000BF6D
:10C3A00002E000BF00E000BFFB6F0133FB67FB6FE3
:10C3B0001B78FB64FB6C583B202B00F2848201A2AB
:10C3C00052F823F06BC5FF1FC7C8FF1FC7C8FF1F68
:10C3D000C7C8FF1FC7C8FF1FC7C8FF1FC7C8FF1FA9
:10C3E000C7C8FF1FC7C8FF1FC7C8FF1FCDC6FF1F95
:10C3F00003C8FF1F49C4FF1FC7C8FF1FC7C8FF1FCF
:10C40000C7C8FF1FC7C8FF1F49C4FF1FC7C8FF1FFA
:10C41000C7C8FF1FC7C8FF1FC7C8FF1FB1C8FF1F7E
:10C42000A5C6FF1FF5C6FF1FC7C8FF1FC7C8FF1F50
:10C4300023C8FF1FC7C8FF1F2BC7FF1FC7C8FF1F89
:10C44000C7C8FF1F65C5FF1FD7F888301A1DC7F87A
:10C4500088201B68BB6107F1180107F1200097F8DD
:10C460005B3000930A23012200F04CFA786707F151
:10C4700020027B6F1344BB67BB69002B05DA2D23B9
:10C480007B667B6F01337B6719E0FB6E03F0020371
:10C49000002B07D02B237B667B6F01337B670EE07D
:10C4A000FEFFFF7FFB6E03F00403002B05D020236B
:10C4B0007B667B6F01337B6701E000237B66002393
:10C4C0003B66FB6E03F00803002B1CD07B6E002B39
:10C4D00006D0BB68F968786E9847FB690133FB6149
:10C4E00001233B66BA6E07F11C013B1D0293FB68FA
:10C4F0000193BB6800930B46796F302000F089FAF6
:10C50000BB6E7B671EE0FB6E03F00103002B19D1AD
:10C51000BA6E07F11C013B1D0293FB680193BB68D7
:10C5200000930B46796F202000F073FA7B6E002B8E
:10C5300006D0BB68F968786E9847FB690133FB61E8
:10C5400001233B663B6E002B40F031817B6E002B5C
:10C5500000F02D81BB68F968786E9847FB6901335C
:10C56000FB6124E1002387F85B30D7F888301A1D7F
:10C57000C7F888201B687B6107F1140107F12000D0
:10C5800097F85B3000931023002200F0BBF9786726
:10C5900007F120027B6F1344BB6700233B66FB6EF1
:10C5A00003F00803002B29D0FB6E03F01003002BCF
:10C5B00013D0BB68F9683020984797F85B30002BA0
:10C5C00001D0582200E07822BB68F96810469847ED
:10C5D000FB690233FB6101233B66BA6E07F11C0164
:10C5E0003B1D0293FB680193BB6800930B46796F78
:10C5F000302000F00EFABB6E7B6733E0FB6E03F079
:10C600000103002B2ED1FB6E03F01003002B02D090
:10C610007B6F02337B67BA6E07F11C013B1D0293EF
:10C62000FB680193BB6800930B46796F202000F0F4
:10C63000F0F9FB6E03F01003002B13D0BB68F96810
:10C640003020984797F85B30002B01D0582200E04B
:10C650007822BB68F96810469847FB690233FB6192
:10C6600001233B66FB6E03F01003002B00F0A1805A
:10C670003B6E002B40F09D80BB68F96830209847E6
:10C6800097F85B30002B01D0582200E07822BB687D
:10C69000F96810469847FB690233FB617B6F0233F0
:10C6A0007B6786E0D7F888301A1DC7F888201B689A
:10C6B0007B6107F1140107F1200097F85B300093CC
:10C6C0000823002200F01EF9786741E0D7F888308F
:10C6D0001A1DC7F888201B687B6107F1140107F158
:10C6E000200097F85B3000930223002200F00AF943
:10C6F00078672DE0D7F888301A1DC7F888201B68A6
:10C700007B61D7F888301A1DC7F888201B687B61C9
:10C7100007F1140107F1200097F85B300093102314
:10C72000002200F0EFF8786712E0D7F888301A1D81
:10C73000C7F888201B687B6107F1140107F120000E
:10C7400097F85B3000930A23002200F0DBF878674B
:10C7500007F120027B6F1344BB67FB6E03F00803F5
:10C76000002B10D0BA6E07F11C013B1D0293FB6831
:10C770000193BB6800930B46796F302000F049F9B4
:10C78000BB6E7B6725E0FB6E03F00103002B12D12B
:10C79000BA6E07F11C013B1D0293FB680193BB6855
:10C7A00000930B46796F202000F033F911E000BFB1
:10C7B0000FE000BF0DE000BF0BE0BB6F5A1EBA6771
:10C7C0001B781A46BB68F96810469847FB69013325
:10C7D000FB61BB6F1B78002BEFD1FB6E03F00103F5
:10C7E000002B78D0BA6E07F11C013B1D0293FB6849
:10C7F0000193BB6800930B46796F202000F009F984
:10C8000069E0D7F888301A1DC7F888201B68DBB2AA
:10C810007B64BB68F968786C9847FB690133FB61FE
:10C820005CE0D7F888301A1DC7F888201B68FB65C4
:10C83000FB6D002B51D0F86DFBF774FD03467B6751
:10C84000FB6E03F00103002B1AD1BA6E07F11C0135
:10C850003B1D0293FB680193BB6800930B46796F05
:10C86000202000F0D6F80BE0FB6D5A1CFA651B780F
:10C870001A46BB68F96810469847FB690133FB61AB
:10C88000FB6D1B78002BEFD1FB6E03F00103002B37
:10C8900023D0BA6E07F11C013B1D0293FB68019384
:10C8A000BB6800930B46796F202000F0B2F814E0CB
:10C8B000D7F888301A1DC7F888201B68BB64FA694E
:10C8C000BB6C1A600AE0BB68F968F86C9847FB69B2
:10C8D0000133FB6102E000BF00E000BFFB6F0133EA
:10C8E000FB67FB6F1B78FB64FB6C002B7FF47CAC5D
:10C8F0007B68002B01D0FB6900E03B6D1846803758
:10C90000BD4680BD80B48DB000AFF860B9607A607C
:10C910003B600023FB61FB68BB61BB695A1CBA61C9
:10C9200000221A707B68002B32D0BB681B68FB6248
:10C93000FB6A002B28D1BB6930221A70FB690133D6
:10C94000FB615FE0FA6A3B6892FBF3F33B613B6992
:10C950003A6802FB03F3FA6AD31ABB62BB6A002B84
:10C9600004DABB6AC3F13003BB6202E0BB6A303356
:10C97000BB623B69FB62BB695A1CBA61BA6AD2B23C
:10C980001A70FB690133FB61FB6A002BDAD139E0D5
:10C99000BB681B687B627B6A002B2FD1BB6930228E
:10C9A0001A70FB690133FB612CE03B687A6AB2FBC9
:10C9B000F3F37B613B687A6902FB03F37A6AD31A6B
:10C9C0003B623B6A092B03D83B6A30333B620AE087
:10C9D00097F83830002B01D0412200E061223B6AF9
:10C9E00013440A3B3B627B697B62BB695A1CBA6198
:10C9F0003A6AD2B21A70FB690133FB617B6A002B81
:10CA0000D3D100BFFB6918463437BD465DF8047BBF
:10CA1000704780B586B000AFF860B9607A603B605F
:10CA2000BB687B610EE0FB68DBB21A463B6A796A41
:10CA3000104698473B681B685A1C3B681A607B6924
:10CA400001337B617A697B689A42ECDB00BF18375F
:10CA5000BD4680BD80B400AF1F4BD3F888301E4A5E
:10CA600043F47003C2F888301C4B4FF0A062C3F847
:10CA700000281A4BD3F80038184A43F00043C2F894
:10CA8000003800BF154BD3F80038002BFADB134BEE
:10CA90000322C3F80028BFF36F8F104B4FF0A06242
:10CAA0001A600E4B1B680D4A43F00043136000BF31
:10CAB0000A4B1B68002BFBDB084B03221A60BFF3F9
:10CAC0006F8FBFF34F8F044B054A9A6000BFBD467E
:10CAD0005DF8047B704700BF00ED00E0002008E037
:10CAE0000080FF1F80B483B000AF78607B680E4A7F
:10CAF000934200D012E00D4B0022DA620B4B002271
:10CB00001A630A4B0A4AC3F87423084B084AC3F84D
:10CB10007823064B0122C3F8382800BF00BF0C372A
:10CB2000BD465DF8047B704700801E4200000E4247
:10CB3000B1B0010080B584B000AFF860B9607A6030
:10CB4000FB707B68032B05D90D4B0E4A8A210E48DA
:10CB500000F066FA7B6803F00303FA78002A02D03B
:10CB60004FF0004200E0002242EA0301FB68BA688D
:10CB7000803243F8221000BF1037BD4680BD00BF91
:10CB800030E6FF1F9CE7FF1F50E6FF1F80B485B013
:10CB900000AFF860B96011461A460B46FB711346A8
:10CBA000BB71FB79BA79002A02D04FF0804200E0D5
:10CBB000002213433A7E002A02D04FF0004200E0E8
:10CBC000002242EA0301FB68BA6802F5807243F86A
:10CBD000221000BF1437BD465DF8047B704780B457
:10CBE00085B000AFF860B9607A60BB68DAB2FB6804
:10CBF00013441A68BB68190CBB681B0A03F01F03B7
:10CC000001FA03F3DB431A40BB681B0A03F01F035E
:10CC100079689940BB68180CBB681B0A03F01F03B6
:10CC200000FA03F30B40B968C8B2F9680144134332
:10CC30000B6000BF1437BD465DF8047B704780B4BD
:10CC400085B000AFF860B9607A60BB68DAB2FB68A3
:10CC500013441A68BB68190CBB681B0A03F01F0356
:10CC600001FA03F3DB431A40BB681B0A03F01F03FE
:10CC700079689940BB68180CBB681B0A03F01F0356
:10CC800000FA03F30B40B968C8B2F96801441343D2
:10CC90000B6000BF1437BD465DF8047B704780B45D
:10CCA00085B000AFF860B9607A60BB68DAB2FB6843
:10CCB00013441A68BB68190CBB681B0A03F01F03F6
:10CCC00001FA03F3DB431A40BB681B0A03F01F039E
:10CCD00079689940BB68180CBB681B0A03F01F03F6
:10CCE00000FA03F30B40B968C8B2F9680144134372
:10CCF0000B6000BF1437BD465DF8047B704780B4FD
:10CD000083B000AF78607B681B899BB223F001037E
:10CD10009AB27B681A8100BF0C37BD465DF8047B70
:10CD20007047000080B500AF0C48FFF7E8FF032212
:10CD30000B490C48FFF7B3FF03220B490948FFF7E3
:10CD4000AEFF032209490748FFF7A9FF032208495C
:10CD50000448FFF7A4FF00BF80BD00BF0080284249
:10CD6000700E030000400C427010030070120300AC
:10CD70007014030080B582B002AF0023009300233B
:10CD80000C223C211148FFF701FF012210491148F4
:10CD9000FFF725FF002210490E48FFF750FF03223E
:10CDA0000E490C48FFF77BFF03220D490948FFF7A6
:10CDB00076FF0C48FFF796FE4FF4E1320A49094826
:10CDC000FFF7CEF800BFBD4680BD00BF00C00F42D8
:10CDD0002406010000400C4224003F007C180300A0
:10CDE0007C1A030000801E4200366E0180B500AF41
:10CDF0000023012201210248FFF79CFE00BF80BDF5
:10CE000000C00F4280B485B000AFF860B960114631
:10CE10001A460B46FB711346BB71FB79BA79002A9F
:10CE200002D04FF0804200E0002213433A7E002AF5
:10CE300002D04FF0004200E0002242EA0301FB680A
:10CE4000BA6802F5807243F8221000BF1437BD465D
:10CE50005DF8047B704780B485B000AFF860B960BE
:10CE60007A60BB68DAB2FB6813441A68BB68190CB5
:10CE7000BB681B0A03F01F0301FA03F3DB431A40EC
:10CE8000BB681B0A03F01F0379689940BB68180C44
:10CE9000BB681B0A03F01F0300FA03F30B40B968D9
:10CEA000C8B2F968014413430B6000BF1437BD4694
:10CEB0005DF8047B704780B485B000AFF860B9605E
:10CEC0007A60BB68DAB2FB6813441A68BB68190C55
:10CED000BB681B0A03F01F0301FA03F3DB431A408C
:10CEE000BB681B0A03F01F0379689940BB68180CE4
:10CEF000BB681B0A03F01F0300FA03F30B40B96879
:10CF0000C8B2F968014413430B6000BF1437BD4633
:10CF10005DF8047B704780B485B000AFF860B960FD
:10CF20007A60BB68DAB2FB6813441A68BB68190CF4
:10CF3000BB681B0A03F01F0301FA03F3DB431A402B
:10CF4000BB681B0A03F01F0379689940BB68180C83
:10CF5000BB681B0A03F01F0300FA03F30B40B96818
:10CF6000C8B2F968014413430B6000BF1437BD46D3
:10CF70005DF8047B7047000080B582B002AFFFF718
:10CF800035FFFFF7CFFEFFF7F5FE002300930023E8
:10CF90000C2214210B48FFF735FF01220A490B48E8
:10CFA000FFF759FF00220A490848FFF784FF0322D0
:10CFB00008490648FFF7AFFF074800F00FF800BF29
:10CFC000BD4680BD00C00F421C06010000400C425F
:10CFD0001C003F006C0C03000800002080B582B0EC
:10CFE00000AF78607B68002B05D10A4B0A4A4C21C0
:10CFF0000A4800F015F87B685B687A6892681A60E6
:10D000007B68DB687A6812691A6000BF0837BD4622
:10D0100080BD00BF14E7FF1FACE7FF1F1CE7FF1F29
:10D020001FB51C46094B1B680546D86852B1084B12
:10D030000091CDE9013207492B46224600F022F843
:10D0400000F0B8FC044B1A46F2E700BF24000020B1
:10D05000BFE7FF1FCCE7FF1FFAE7FF1F08B5074B2D
:10D06000044613B10021AFF30080054B1868836AB2
:10D0700003B19847204600F0B3FF00BF0000000056
:10D08000FCE7FF1F0EB403B5014603AB054853F898
:10D09000042B0068019300F021F902B05DF804EB65
:10D0A00003B070472400002070B50D4E0D4CA41B3A
:10D0B000A4100025A54209D10B4E0C4C01F0EAFB4F
:10D0C000A41BA4100025A54205D170BD56F825303B
:10D0D00098470135EEE756F8253098470135F2E7D5
:10D0E000B4E8FF1FB4E8FF1FB4E8FF1FB8E8FF1F54
:10D0F000024B0146186800F06DB800BF2400002004
:10D10000024B0146186800F017B800BF2400002049
:10D1100010B5431E0A44914200D110BD11F8014BD5
:10D1200003F8014FF7E702440346934200D17047EA
:10D1300003F8011BF9E7000038B50546002945D082
:10D1400051F8043C0C1F002BB8BFE41800F018FE87
:10D150001F4A1368104633B9636014602846BDE85F
:10D16000384000F00EBEA3420CD9216862189342E9
:10D1700004BF1A685B68636004BF521822600460D1
:10D18000ECE713465A680AB1A242FAD9196858184E
:10D19000A0420BD120680144581882421960DDD1A9
:10D1A000106852685A6001441960D7E702D90C230D
:10D1B0002B60D3E7206821188A4204BF11685268A7
:10D1C000626004BF091821605C60C7E738BD00BF1A
:10D1D0007422002070B5CD1C25F0030508350C2DF8
:10D1E00038BF0C25002D064601DBA94203D90C23CC
:10D1F0003360002070BD00F0C3FD214A1468214651
:10D2000091B9204C23681BB9304600F003FB206025
:10D210002946304600F0FEFA431C24D10C2333602B
:10D22000304600F0AEFDE4E70B685B1B18D40B2B17
:10D230000FD90B60CD50CC18304600F0A2FD04F1A0
:10D240000B00231D20F00700C31AD3D05A42E2502E
:10D25000D0E78C424B6816BF636013600C46EBE767
:10D260000C464968CCE7C41C24F00304A04205D056
:10D27000211A304600F0CEFA0130CFD02560DBE72E
:10D2800074220020782200209368013B002B10B408
:10D29000936008DA9469A34201DB0A2903D15DF89F
:10D2A000044B00F0C7BA1368581C10601970084688
:10D2B0005DF8044B7047F8B506460F461446D5187E
:10D2C000AC4201D1002007E03A4614F8011B304679
:10D2D000FFF7DAFF431CF3D1F8BD00002DE9F04F52
:10D2E0009DB00C4617460393064618B183690BB9E7
:10D2F00000F058FC7B4B9C4257D17468A3891807F7
:10D300005DD52369002B5AD00023099320238DF883
:10D31000293030238DF82A304FF0010BB8464546AE
:10D3200015F8013B0BB1252B54D1B8EB070A0BD0F4
:10D3300053463A4621463046FFF7BDFF013000F024
:10D34000C280099B5344099398F80030002B00F0E9
:10D35000BA8000234FF0FF32CDE9052304930793F1
:10D360008DF853301A93A846052218F8011B5E4821
:10D37000FAF7E6FF049B78BBD90644BF20228DF85C
:10D3800053201A0744BF2B228DF853202A782A2ACB
:10D390002AD0079AA84600200A25414611F8013BE9
:10D3A000303B092B69D960B324E0504B9C4201D13A
:10D3B000B468A3E74E4B9C4208BFF4689EE7214641
:10D3C000304600F089FA00289ED04FF0FF301DB0A3
:10D3D000BDE8F08FA846A2E7434A801A0BFA00F096
:10D3E000184304904546BEE7039A111D1268039145
:10D3F000002A01DB079204E0524243F00203079245
:10D40000049398F800302E2B0ED198F801302A2B77
:10D4100038D1039B1A1D1B680392002BB8BF4FF035
:10D42000FF3308F102080593324D98F800100322EB
:10D430002846FAF785FF40B14023401B03FA00F06D
:10D44000049B034308F10108049398F800102A484C
:10D450008DF82810062208F10107FAF771FF00285D
:10D4600037D0264B1BBB039B073323F0070308333E
:10D470000393099B4B44099350E705FB02320120BB
:10D4800088468AE7002308F10108059319460A2512
:10D49000404610F8012B303A092A03D9002BC3D09B
:10D4A0000591C1E705FB012101238046F0E703ABAD
:10D4B00000932246124B04A93046AFF30080B0F12E
:10D4C000FF3F8146D5D1A3895B063FF57EAF099822
:10D4D0007DE703AB00932246094B04A9304600F0D8
:10D4E00087F8ECE754E8FF1F00E8FF1F74E8FF1F10
:10D4F00034E8FF1F06E8FF1F0AE8FF1F00000000D6
:10D50000B7D2FF1F2DE9F04791461F468A680B6985
:10D51000DDF820809342B8BF1346C9F8003091F877
:10D52000432006460C4612B10133C9F80030236887
:10D53000990642BFD9F800300233C9F80030256897
:10D5400015F0060507D104F1190AE368D9F800209F
:10D550009B1AAB4228DC94F843302268003318BF92
:10D56000012392062DD404F1430239463046C047C8
:10D57000013020D02368E568D9F8002003F00603C5
:10D58000042B08BFAD1AA36822690CBF25EAE57514
:10D5900000259342C4BF9B1AED184FF000091A34BE
:10D5A0004D451AD1002008E0012352463946304645
:10D5B000C047013003D14FF0FF30BDE8F08701359F
:10D5C000C3E7E1185A1C302081F84300224494F844
:10D5D000451082F843100233C5E70123224639463D
:10D5E0003046C0470130E6D009F10109D8E7000014
:10D5F0002DE9F04301F1430C0C46097E85B06E29FC
:10D600001746064698460C9A00F0B38022D8632944
:10D6100036D00AD8002900F0B980582900F083805C
:10D6200004F1420584F8421032E0642901D06929EE
:10D63000F6D120681368050603F104012AD51B689A
:10D640001160002B03DA2D225B4284F843206F48DF
:10D650000A2239E0732900F09D8008D86F2920D074
:10D660007029DDD1236843F02003236003E075298E
:10D6700017D07829D4D1782384F84530644855E010
:10D680001368191D1B68116004F1420584F84230CB
:10D6900001238CE01B68116010F0400F18BF1BB213
:10D6A000CFE713682568181D1060280601D51B6890
:10D6B00002E06806FBD51B8854486F2914BF0A2274
:10D6C0000822002184F843106568A560002DC0F28F
:10D6D0009580216821F004012160002B3DD1002DAF
:10D6E00040F08E806546082A0BD12368DB0708D5F9
:10D6F000236962689A42DEBF302305F8013C05F1D8
:10D70000FF35ACEB05032361CDF800803B4603AA4F
:10D7100021463046FFF7F6FE01304DD14FF0FF3085
:10D7200005B0BDE8F083394884F8451013682168D6
:10D730001D1D1B6815600A060BD5CA0744BF41F0C2
:10D74000200121601BB9226822F0200222601022F1
:10D75000B7E74D0648BF9BB2EFE76546B3FBF2F172
:10D7600002FB1133C35C05F8013D0B460029F5D1DE
:10D77000B9E7136825686169181D106028061B68E1
:10D7800001D5196002E06A06FBD5198000232361E8
:10D790006546B9E71368191D11601D6862680021AC
:10D7A0002846FAF7CDFD08B1401B6060636823612D
:10D7B000002384F84330A7E723692A4639463046D8
:10D7C000C0470130AAD023689B0713D4E068039BAD
:10D7D0009842B8BF1846A3E701234A463946304667
:10D7E000C04701309AD00135E368039A9B1AAB42D7
:10D7F000F2DCEBE7002504F11909F5E7002BACD1C9
:10D80000037884F8423004F142056CE711E8FF1F09
:10D8100022E8FF1F38B5064C002305460846236062
:10D8200000F0D0FB431C02D1236803B12B6038BD4C
:10D8300080220020F8B50E461446054618B18369CB
:10D840000BB900F0AFF9214B9C422AD16C68A36957
:10D85000A360A3891A072ED5236963B323692068BF
:10D86000C01A6369F6B28342374604DC2146284673
:10D8700000F02EF928BBA368013BA36023685A1C63
:10D8800022601E7063690130834204D0A389DB07E4
:10D8900019D50A2E17D12146284600F019F990B162
:10D8A0000FE00B4B9C4201D1AC68D0E7094B9C4286
:10D8B00008BFEC68CBE72146284600F00DF80028A9
:10D8C000CCD04FF0FF373846F8BD00BF54E8FF1FFB
:10D8D00074E8FF1F34E8FF1F324B70B51D68064621
:10D8E0000C4625B1AB6913B9284600F05BF92E4B05
:10D8F0009C420FD16C68B4F90C309AB215072CD445
:10D90000D00611D40922326043F04003A3814FF0C6
:10D91000FF303EE0254B9C4201D1AC68EBE7244B45
:10D920009C4208BFEC68E6E7510712D5616B41B134
:10D9300004F14403994202D03046FFF7FDFB002377
:10D940006363A38923F02403A38100236360236915
:10D950002360A38943F00803A38123694BB9A389FA
:10D9600003F42073B3F5007F03D02146304600F066
:10D97000C7F9A28912F001030CD00023A3606369E8
:10D980005B42A361236953B9B4F90C3013F08000F2
:10D99000BAD170BD920758BF6369A360F2E7002057
:10D9A000F7E700BF2400002054E8FF1F74E8FF1FC2
:10D9B00034E8FF1F08B5062000F00CFA012000F043
:10D9C0000FFB00008A892DE9F041054610070C463F
:10D9D00058D44B68002B05DC0B6C002B02DC0020BC
:10D9E000BDE8F081E66A002EF9D0002312F48052DF
:10D9F0002F68216A2B6032D0606DA3895A0705D544
:10DA00006368C01A636B0BB1236CC01A0023024613
:10DA1000E66A216A2846B047431CA38906D12968D3
:10DA20001D2948D8294ACA40D60744D50022626039
:10DA3000D9042269226004D5421C01D12B6803B9A4
:10DA40006065616B2F600029C9D004F144039942DD
:10DA500002D02846FFF770FB00206063C0E7012377
:10DA60002846B047411CC8D12B68002BC5D01D2BC0
:10DA700001D0162B01D12F60B1E7A38943F04003F9
:10DA8000A381ADE70F69002FA9D093070E6808BFE7
:10DA90004B690F6018BF0023A6EB07088B60B8F135
:10DAA000000F9CDD43463A46216AA66A2846B047E5
:10DAB000002806DCA38943F04003A3814FF0FF3028
:10DAC0008EE70744A8EB0008E9E700BF010040200B
:10DAD00038B50B6905460C46DBB118B183690BB943
